{"abi":[{"type":"function","name":"createTodo","inputs":[{"name":"description","type":"string","internalType":"string"}],"outputs":[],"stateMutability":"nonpayable"},{"type":"function","name":"getTodoById","inputs":[{"name":"id","type":"uint256","internalType":"uint256"}],"outputs":[{"name":"","type":"tuple","internalType":"struct Todo","components":[{"name":"id","type":"uint256","internalType":"uint256"},{"name":"description","type":"string","internalType":"string"},{"name":"completed","type":"bool","internalType":"bool"}]}],"stateMutability":"view"},{"type":"function","name":"numberOfTodos","inputs":[],"outputs":[{"name":"","type":"uint256","internalType":"uint256"}],"stateMutability":"view"},{"type":"function","name":"todos","inputs":[{"name":"","type":"uint256","internalType":"uint256"}],"outputs":[{"name":"id","type":"uint256","internalType":"uint256"},{"name":"description","type":"string","internalType":"string"},{"name":"completed","type":"bool","internalType":"bool"}],"stateMutability":"view"},{"type":"function","name":"toggleCompleted","inputs":[{"name":"_id","type":"uint256","internalType":"uint256"}],"outputs":[],"stateMutability":"nonpayable"}],"bytecode":{"object":"0x608060405260008055348015601357600080fd5b50610749806100236000396000f3fe608060405234801561001057600080fd5b50600436106100575760003560e01c8063455f50241461005c578063b9d7bf6414610071578063bc8bc2b41461008d578063d41eaae5146100af578063e34f1221146100cf575b600080fd5b61006f61006a36600461040d565b6100e2565b005b61007a60005481565b6040519081526020015b60405180910390f35b6100a061009b36600461040d565b6101f9565b6040516100849392919061046c565b6100c26100bd36600461040d565b6102a6565b6040516100849190610497565b61006f6100dd3660046104eb565b610396565b6000818152600160208181526040808420815160608101909252805482529283018054919392840191610114906105a4565b80601f0160208091040260200160405190810160405280929190818152602001828054610140906105a4565b801561018d5780601f106101625761010080835404028352916020019161018d565b820191906000526020600020905b81548152906001019060200180831161017057829003601f168201915b50505091835250506002919091015460ff161515602091820152604080830180511590526000858152600180845291902083518155918301519293508392908201906101d9908261062d565b50604091909101516002909101805460ff19169115159190911790555050565b60016020819052600091825260409091208054918101805461021a906105a4565b80601f0160208091040260200160405190810160405280929190818152602001828054610246906105a4565b80156102935780601f1061026857610100808354040283529160200191610293565b820191906000526020600020905b81548152906001019060200180831161027657829003601f168201915b5050506002909301549192505060ff1683565b6102cc604051806060016040528060008152602001606081526020016000151581525090565b600082815260016020818152604092839020835160608101909452805484529182018054918401916102fd906105a4565b80601f0160208091040260200160405190810160405280929190818152602001828054610329906105a4565b80156103765780601f1061034b57610100808354040283529160200191610376565b820191906000526020600020905b81548152906001019060200180831161035957829003601f168201915b50505091835250506002919091015460ff16151560209091015292915050565b6000805490806103a5836106ec565b9091555050604080516060810182526000805480835260208084018681528486018490529183526001908190529390912082518155905191929091908201906103ee908261062d565b50604091909101516002909101805460ff191691151591909117905550565b60006020828403121561041f57600080fd5b5035919050565b6000815180845260005b8181101561044c57602081850181015186830182015201610430565b506000602082860101526020601f19601f83011685010191505092915050565b8381526060602082015260006104856060830185610426565b90508215156040830152949350505050565b602081528151602082015260006020830151606060408401526104bd6080840182610426565b90506040840151151560608401528091505092915050565b634e487b7160e01b600052604160045260246000fd5b6000602082840312156104fd57600080fd5b813567ffffffffffffffff81111561051457600080fd5b8201601f8101841361052557600080fd5b803567ffffffffffffffff81111561053f5761053f6104d5565b604051601f8201601f19908116603f0116810167ffffffffffffffff8111828210171561056e5761056e6104d5565b60405281815282820160200186101561058657600080fd5b81602084016020830137600091810160200191909152949350505050565b600181811c908216806105b857607f821691505b6020821081036105d857634e487b7160e01b600052602260045260246000fd5b50919050565b601f82111561062857806000526020600020601f840160051c810160208510156106055750805b601f840160051c820191505b818110156106255760008155600101610611565b50505b505050565b815167ffffffffffffffff811115610647576106476104d5565b61065b8161065584546105a4565b846105de565b6020601f82116001811461068f57600083156106775750848201515b600019600385901b1c1916600184901b178455610625565b600084815260208120601f198516915b828110156106bf578785015182556020948501946001909201910161069f565b50848210156106dd5786840151600019600387901b60f8161c191681555b50505050600190811b01905550565b60006001820161070c57634e487b7160e01b600052601160045260246000fd5b506001019056fea264697066735822122081ef5be63866b01804b909360a9301cf82c48363632004a9e79ba1dd02c81b2d64736f6c634300081a0033","linkReferences":{}},"methodIdentifiers":{"createTodo(string)":"e34f1221","getTodoById(uint256)":"d41eaae5","numberOfTodos()":"b9d7bf64","todos(uint256)":"bc8bc2b4","toggleCompleted(uint256)":"455f5024"},"id":0}