{"abi":[{"type":"constructor","inputs":[{"name":"message_","type":"string","internalType":"string"}],"stateMutability":"nonpayable"},{"type":"function","name":"get_message","inputs":[],"outputs":[{"name":"","type":"string","internalType":"string"}],"stateMutability":"view"},{"type":"function","name":"kill","inputs":[],"outputs":[],"stateMutability":"nonpayable"},{"type":"function","name":"set_message","inputs":[{"name":"message_","type":"string","internalType":"string"}],"outputs":[],"stateMutability":"nonpayable"}],"bytecode":{"object":"0x608060405234801561001057600080fd5b5060405161067638038061067683398101604081905261002f9161006a565b600080546001600160a01b03191633179055600161004d82826101bf565b505061027d565b634e487b7160e01b600052604160045260246000fd5b60006020828403121561007c57600080fd5b81516001600160401b0381111561009257600080fd5b8201601f810184136100a357600080fd5b80516001600160401b038111156100bc576100bc610054565b604051601f8201601f19908116603f011681016001600160401b03811182821017156100ea576100ea610054565b60405281815282820160200186101561010257600080fd5b60005b8281101561012157602081850181015183830182015201610105565b50600091810160200191909152949350505050565b600181811c9082168061014a57607f821691505b60208210810361016a57634e487b7160e01b600052602260045260246000fd5b50919050565b601f8211156101ba57806000526020600020601f840160051c810160208510156101975750805b601f840160051c820191505b818110156101b757600081556001016101a3565b50505b505050565b81516001600160401b038111156101d8576101d8610054565b6101ec816101e68454610136565b84610170565b6020601f82116001811461022057600083156102085750848201515b600019600385901b1c1916600184901b1784556101b7565b600084815260208120601f198516915b828110156102505787850151825560209485019460019092019101610230565b508482101561026e5786840151600019600387901b60f8161c191681555b50505050600190811b01905550565b6103ea8061028c6000396000f3fe608060405234801561001057600080fd5b50600436106100415760003560e01c80632e9826021461004657806332af2edb1461005b57806341c0e1b514610079575b600080fd5b610059610054366004610165565b610081565b005b6100636100a6565b604051610070919061021e565b60405180910390f35b610059610138565b6000546001600160a01b031633146100965750565b60016100a282826102f5565b5050565b6060600180546100b59061026c565b80601f01602080910402602001604051908101604052809291908181526020018280546100e19061026c565b801561012e5780601f106101035761010080835404028352916020019161012e565b820191906000526020600020905b81548152906001019060200180831161011157829003601f168201915b5050505050905090565b6000546001600160a01b0316330361014d5733ff5b565b634e487b7160e01b600052604160045260246000fd5b60006020828403121561017757600080fd5b813567ffffffffffffffff81111561018e57600080fd5b8201601f8101841361019f57600080fd5b803567ffffffffffffffff8111156101b9576101b961014f565b604051601f8201601f19908116603f0116810167ffffffffffffffff811182821017156101e8576101e861014f565b60405281815282820160200186101561020057600080fd5b81602084016020830137600091810160200191909152949350505050565b602081526000825180602084015260005b8181101561024c576020818601810151604086840101520161022f565b506000604082850101526040601f19601f83011684010191505092915050565b600181811c9082168061028057607f821691505b6020821081036102a057634e487b7160e01b600052602260045260246000fd5b50919050565b601f8211156102f057806000526020600020601f840160051c810160208510156102cd5750805b601f840160051c820191505b818110156102ed57600081556001016102d9565b50505b505050565b815167ffffffffffffffff81111561030f5761030f61014f565b6103238161031d845461026c565b846102a6565b6020601f821160018114610357576000831561033f5750848201515b600019600385901b1c1916600184901b1784556102ed565b600084815260208120601f198516915b828110156103875787850151825560209485019460019092019101610367565b50848210156103a55786840151600019600387901b60f8161c191681555b50505050600190811b0190555056fea264697066735822122071a8526661f2cbd157cd2db7e2c0f82fc1e99f221ad9f011e0c02e8dbf37e04564736f6c634300081a0033","linkReferences":{}},"methodIdentifiers":{"get_message()":"32af2edb","kill()":"41c0e1b5","set_message(string)":"2e982602"},"id":0}